:100000000C9437000C94A7070C94D4070C945F0051
:100010000C945F000C945F000C945F000C945F00E4
:100020000C945F000C945F000C945F000C945F00D4
:100030000C945F000C945F000C945F000C945F00C4
:100040000C9401080C945F000C9416090C945F004A
:100050000C945F000C945F000C945F000C945F00A4
:100060000C942C040C945F0003032503A1061124B7
:100070001FBECFEFD4E0DEBFCDBF11E0A0E0B1E006
:10008000EEE7F3E102C005900D92A831B107D9F770
:1000900011E0A8E1B1E001C01D92A63DB107E1F772
:1000A00010E0CEE6D0E004C02297FE010E94B9091C
:1000B000C836D107C9F70E949A060C94BD090C9462
:1000C00000000F931F93CF93DF93689F8001699F78
:1000D000100D789F100D1124C8010E947D00EC01C5
:1000E000009729F0A80160E070E00E947F01CE0136
:1000F000DF91CF911F910F910895CF93DF93BC01B2
:100100008230910510F462E070E0A091D401B091CA
:10011000D501ED01E0E0F0E040E050E021C0888151
:1001200099818617970769F48A819B81309719F026
:100130009383828304C09093D5018093D401FE0100
:1001400034C06817790738F44115510519F0841740
:10015000950708F4AC01FE018A819B819C01E901AD
:100160002097E9F641155105A9F1CA01861B970BA5
:10017000049708F4BA01E0E0F0E02AC08D919C9168
:10018000119784179507F9F46417750781F412968F
:100190008D919C911397309719F09383828304C0BB
:1001A0009093D5018093D401FD0132964CC0CA01D1
:1001B000861B970BFD01E80FF91F6193719302975E
:1001C0008D939C9340C0FD01828193819C01D90154
:1001D0001097A1F68091D2019091D301892B41F41F
:1001E00080910D0190910E019093D3018093D201E3
:1001F00040910F01509110014115510541F44DB747
:100200005EB780910B0190910C01481B590B209116
:10021000D2013091D301CA01821B930B8617970735
:1002200080F0AB014E5F5F4F8417950750F0420F8F
:10023000531F5093D3014093D201F90161937193FD
:1002400002C0E0E0F0E0CF01DF91CF910895CF93BD
:10025000DF93009709F450C0EC0122971B821A82A9
:10026000A091D401B091D501109709F140E050E080
:10027000AC17BD0708F1BB83AA83FE012191319120
:10028000E20FF31FAE17BF0779F48D919C91119780
:10029000280F391F2E5F3F4F3983288312968D9187
:1002A0009C9113979B838A834115510571F4D093D8
:1002B000D501C093D40120C012968D919C911397C3
:1002C000AD01009711F0DC01D3CFFA01D383C283D3
:1002D00021913191E20FF31FCE17DF0769F4888176
:1002E0009981280F391F2E5F3F4FFA0131832083F8
:1002F0008A819B8193838283DF91CF910895DC0172
:1003000001C06D9341505040E0F708950F931F9343
:10031000CF93DF938C0168E670E089E291E00E9460
:10032000080360E070E089E291E00E944E03C0E0C3
:10033000D0E0F801EC0FFD1F608189E291E00E949E
:1003400026032196C730D105A1F789E291E00E94EA
:100350005103DF91CF911F910F910895FC011082FD
:100360000E9486010895FC01808180688083CF010E
:100370000E9486010895CF93DF93EC01FA01633068
:10038000710509F458C0643071054CF46130710591
:1003900051F162307105DCF5672B71F089C0653071
:1003A000710509F460C0653071050CF449C0663010
:1003B000710509F07DC06AC04C33510508F078C062
:1003C000CA016AE070E00E945309262F2295207F1F
:1003D000CF016AE070E00E945309280F888180787D
:1003E000822B888365C04C33510508F061C0CA0177
:1003F0006AE070E00E945309262F2295207FCF01EA
:100400006AE070E00E945309280F298351C04831E7
:10041000510508F04DC0CA016AE070E00E9453091E
:10042000262F2295207FCF016AE070E00E945309B9
:10043000280F2A833DC048305105D0F54B8338C082
:1004400040325105A8F5CA016AE070E00E945309E4
:10045000262F2295207FCF016AE070E00E94530989
:10046000280F2C8325C04D30510510F5CA016AE0D4
:1004700070E00E945309262F2295207FCF016AE069
:1004800070E00E945309280F2D8312C0423351059A
:1004900078F4CA016AE070E00E945309262F229581
:1004A000207FCF016AE070E00E945309280F2E835D
:1004B000CE010E948601DF91CF9108950F931F9383
:1004C000CF93DF938C0168E670E089E291E00E94AF
:1004D000080360E070E089E291E00E944E0389E247
:1004E00091E00E94510347E050E068E670E089E245
:1004F00091E00E947203C0E0D0E089E291E00E94A6
:100500001203F801EC0FFD1F80832196C730D1053F
:10051000A1F7DF91CF911F910F9108950F931F9332
:10052000CF93DF938C01EB01442311F00E945E0214
:10053000C330D105B9F1C430D1054CF4C130D10577
:10054000A1F0C230D1055CF5CD2B61F008C0C530FB
:10055000D105E1F1C530D10564F12697F1F14FEFF6
:100560005FEF4BC0F801208102C0F801218130E02B
:10057000C90180779070E4E095958795EA95E1F759
:10058000AC0173E0440F551F7A95E1F7880F991F6E
:10059000480F591F2F703070420F531F2EC0F801A3
:1005A000228116C0F8018381482F50E047705070B7
:1005B00024C0F8018481282F22952F709AE0299F6A
:1005C000A00111248F70480F511D17C0F80125811B
:1005D00030E0C90180739070CECFF8018681482F3A
:1005E00050E04F7050704053584F82958F702AE002
:1005F000829FC0011124480F591FCA01DF91CF917A
:100600001F910F91089589E291E00E94750308956A
:1006100081E08093280160932301109226011092BB
:10062000270108959091210180912201981710F0DF
:1006300080E00895E0911F01F0912001E90FF11D84
:1006400080819F5F9093210108950895DF93CF9358
:100650000F92CDB7DEB76983809128018823A9F076
:10066000809127018032B0F480912601E09124012D
:10067000F0912501E80FF11D6083809126018F5FC5
:10068000809326018093270105C061E0CE01019689
:100690000E940F040F90CF91DF9108950E942603CE
:1006A0000895609124017091250121E04091270176
:1006B000809123010E94CA03109226011092270103
:1006C000109228010895862F413208F040E260918F
:1006D0001F01709120010E949403109221018093C8
:1006E000220108950E946303089561E070E080E2B2
:1006F00090E00E94610080931F019093200110926E
:1007000021011092220161E070E080E290E00E94FD
:10071000610080932401909325011092260110928C
:1007200027010E94AE050895982F413210F040E055
:100730002FC080912A018823E1F781E080932A016C
:100740008FEF80933B011092320140933301990F58
:10075000916090932B0185EE8093BC0080912A01DB
:100760008130E1F380913201841710F4409132011D
:10077000A0913001B091310120E030E007C0FB01D1
:10078000E20FF31F8D9180832F5F3F4F2417B8F343
:10079000842F08951F93582F122F413210F081E0BB
:1007A0003CC080912A018823E1F782E080932A01EE
:1007B0008FEF80933B011092320140933301A0915F
:1007C0003001B0913101FB0102C081918D938E2FD8
:1007D000861B8417D0F3852F90E0880F991F809394
:1007E0002B0185EE8093BC00112321F080912A011A
:1007F0008230E1F380913B018F3F11F480E00DC026
:1008000080913B01803211F482E007C080913B016E
:10081000803311F084E001C083E01F910895482FD8
:10082000613210F081E0089580912A01843011F046
:1008300082E0089560933701A0913401B0913501B1
:10084000842F9C01F90102C081918D938E2F841B0E
:100850008617D0F380E008951F920F920FB60F9283
:1008600011242F933F934F935F936F937F938F93B5
:100870009F93AF93BF93EF93FF938091B90090E064
:10088000887F90708036910509F4E2C08136910529
:10089000CCF58832910509F47BC089329105B4F416
:1008A0008031910509F46FC0813191053CF40097C6
:1008B00009F438C1089709F040C165C08831910535
:1008C00009F466C0809709F038C17FC08034910573
:1008D00009F4A3C08134910544F48033910509F4EF
:1008E0007FC0C89709F029C186C08035910509F4F9
:1008F00086C08835910509F495C08834910509F0C2
:100900001CC19EC08839910509F404C1893991053B
:10091000ECF48837910509F49BC0893791054CF4B4
:100920008836910509F494C08037910509F005C116
:100930008FC08838910509F4EDC08039910509F41C
:100940008DC08038910509F0F8C088C0803B9105C2
:1009500009F4B2C0813B91054CF4803A910509F449
:1009600091C0883A910509F0E8C0A6C0803C910585
:1009700009F4D4C0883C910509F4D0C0883B9105A6
:1009800009F0DBC0B1C080912B018093BB00C0C0D7
:100990009091320180913301981778F4909132014F
:1009A000E0913001F0913101E90FF11D80818093D8
:1009B000BB009F5F90933201ABC085ED8093BC007C
:1009C0008091BC0084FDFCCFB6C080E280933B01E7
:1009D00085ED8093BC008091BC0084FDFCCFABC052
:1009E00080E380933B0185ED8093BC008091BC0047
:1009F00084FDFCCFA0C088E380933B018FC0809131
:100A000032019091BB00E0913001F0913101E80F8B
:100A1000F11D90838F5F809332019091320180911C
:100A2000330174C0809132019091BB00E09130019C
:100A3000F0913101E80FF11D90838F5F80933201B7
:100A400085ED8093BC008091BC0084FDFCCF73C019
:100A500083E080932A0110923A015AC080913A01B2
:100A6000803208F057C080913A019091BB00E0912C
:100A70003801F0913901E80FF11D90838F5F809369
:100A80003A0146C080913A01803248F480913A019F
:100A9000E0913801F0913901E80FF11D1082609169
:100AA0003A01E0912E01F0912F0170E08091380120
:100AB00090913901099532C084E080932A01109207
:100AC000360110923701E0912C01F0912D0109952A
:100AD00080913701882341F481E080933701E091D0
:100AE0003401F0913501108290913601E09134018A
:100AF000F0913501E90FF11D80818093BB009F5F6C
:100B0000909336019091360180913701981710F437
:100B100085EC01C085E88093BC000FC085EC809314
:100B2000BC0009C010923B0185ED8093BC00809110
:100B3000BC0084FDFCCF10922A01FF91EF91BF9180
:100B4000AF919F918F917F916F915F914F913F9165
:100B50002F910F900FBE0F901F90189510922A01A1
:100B6000449A459AE9EBF0E080818E7F8083808112
:100B70008D7F808388E48093B80085E48093BC00F7
:100B800061E070E080E290E00E94610080933001BB
:100B90009093310161E070E080E290E00E9461009A
:100BA000809334019093350161E070E080E290E041
:100BB0000E94610080933801909339010895CF928B
:100BC000DF92EF92FF920F931F9328E1C22E21E054
:100BD000D22E41E062E070E0C6010E948E020CE37A
:100BE00011E0BC01C8010E949F0790E0E92E91E04E
:100BF000F92EB701C8010E94B10640E061E070E043
:100C0000C6010E948E02BC01C8010E949F07B70165
:100C1000C8010E94B10640E060E070E0C6010E9499
:100C20008E02BC01C8010E949F0762E071E0C8010A
:100C30000E94B10640E064E070E0C6010E948E02AE
:100C4000BC01C8010E949F0789E0E82E81E0F82ED0
:100C5000B701C8010E94B10640E065E070E0C6013E
:100C60000E948E02BC01C8010E949F07B701C80103
:100C70000E94B10640E066E070E0C6010E948E026C
:100C8000BC01C8010E949F07C8010E94C90668EE06
:100C900073E080E090E00E9471081F910F91FF9037
:100CA000EF90DF90CF9008950F931F9340E855E2A7
:100CB00060E070E08CE391E00E94AC0608E111E096
:100CC000C8010E94B30141E050E060E070E0C8015B
:100CD0000E94BB0147E150E061E070E0C8010E9462
:100CE000BB014CE050E062E070E0C8010E94BB0133
:100CF00044E050E063E070E0C8010E94BB0145E0C1
:100D000050E064E070E0C8010E94BB0143E050E0A5
:100D100065E070E0C8010E94BB0149E050E066E078
:100D200070E0C8010E94BB01C8010E94AE011F9182
:100D30000F9108950E949B080E9454060E94DF05AF
:100D4000FDCF85E191E090933D0180933C010895B2
:100D5000862F0E940E090895CB01BA010E94D50882
:100D600008950F931F93CF93DF938C01EB0109C07C
:100D70002196D801ED91FC910190F081E02DC80100
:100D8000099568816623A1F7DF91CF911F910F919B
:100D900008950F931F938C01DC01ED91FC9101905C
:100DA000F081E02D6DE00995D801ED91FC91019065
:100DB000F081E02D6AE0C80109951F910F91089517
:100DC0002F923F924F925F926F927F928F929F925B
:100DD000AF92BF92CF92DF92EF92FF920F931F9349
:100DE000DF93CF93CDB7DEB7A0970FB6F894DEBFF1
:100DF0000FBECDBF1C016A017B0141155105610584
:100E0000710549F4DC01ED91FC910190F081E02D38
:100E100060E3099554C0882499245401422E552436
:100E20006624772401E010E00C0F1D1F080D191D2A
:100E3000C701B601A30192010E946609F80160830F
:100E40000894811C911CA11CB11CC701B601A3010F
:100E500092010E946609C901DA016C017D01C11489
:100E6000D104E104F104F1F681E0E82EF12CEC0E5E
:100E7000FD1EE80CF91C3E010894611C711CD50193
:100E8000C4010197A109B1096C01C818D90814C09F
:100E9000F601EE0DFF1D60816A3010F4605D01C047
:100EA000695CD101ED91FC910190F081E02DC101CF
:100EB00009950894E108F1086E147F0449F7A0969B
:100EC0000FB6F894DEBF0FBECDBFCF91DF911F915B
:100ED0000F91FF90EF90DF90CF90BF90AF909F90D9
:100EE0008F907F906F905F904F903F902F900895DC
:100EF000EF92FF920F931F93CF93DF93EC017A0150
:100F00008B0177FF0FC0E881F9810190F081E02D1E
:100F10006DE2099510950095F094E094E11CF11CA8
:100F2000011D111D2AE0B801A701CE010E94E006B3
:100F3000DF91CF911F910F91FF90EF900895AB013A
:100F4000662757FD6095762F0E94780708951F92B7
:100F50000F920FB60F9211242F933F934F935F93ED
:100F60006F937F938F939F93AF93BF93EF93FF9371
:100F700080913E0190913F01892B29F0E0913E0143
:100F8000F0913F010995FF91EF91BF91AF919F9132
:100F90008F917F916F915F914F913F912F910F9022
:100FA0000FBE0F901F9018951F920F920FB60F92C1
:100FB00011242F933F934F935F936F937F938F935E
:100FC0009F93AF93BF93EF93FF93809140019091D4
:100FD0004101892B29F0E0914001F09141010995EF
:100FE000FF91EF91BF91AF919F918F917F916F9101
:100FF0005F914F913F912F910F900FBE0F901F90D7
:1010000018951F920F920FB60F9211242F938F9362
:101010009F93AF93BF938091420190914301A09120
:101020004401B09145010196A11DB11D809342017B
:1010300090934301A0934401B093450180914601F0
:1010400090914701A0914801B09149018050904C86
:10105000AF4FBF4F8093460190934701A093480143
:10106000B093490127C08091460190914701A0911A
:101070004801B091490180589E43A040B040809300
:10108000460190934701A0934801B0934901809194
:101090004A0190914B01A0914C01B0914D010196F4
:1010A000A11DB11D80934A0190934B01A0934C0167
:1010B000B0934D018091460190914701A091480164
:1010C000B091490181589E43A040B04060F6BF9165
:1010D000AF919F918F912F910F900FBE0F901F9006
:1010E0001895EF92FF920F931F937B018C018FB79E
:1010F000F89440914A0150914B0160914C017091DC
:101100004D018FBF2FB7F89480914A0190914B0108
:10111000A0914C01B0914D012FBF841B950BA60BE4
:10112000B70BE816F9060A071B0760F71F910F9126
:10113000FF90EF900895789484B5826084BD84B563
:10114000816084BD85B5826085BD85B5816085BDC2
:10115000EEE6F0E0808181608083E1E8F0E080816C
:1011600082608083808181608083E0E8F0E080811C
:1011700081608083E1EBF0E0808184608083E0EB3C
:10118000F0E0808181608083EAE7F0E08081846024
:101190008083808182608083808181608083808180
:1011A000806880831092C1000895EF92FF920F93A0
:1011B0001F937B018C0122E030E040E050E00E9470
:1011C0008809205C3D4B404F5F4FCA01B901A8011F
:1011D00097010E948809C901DA010197A109B109A3
:1011E000292F3A2F4B2F552747FD5A950196A11DC0
:1011F000B11D2093C50081508093C400E1ECF0E064
:101200008081806180838081886080838081806824
:1012100080831F910F91FF90EF900895982F8091F8
:10122000C00085FFFCCF9093C60008951F920F92D7
:101230000FB60F9211242F933F934F935F936F93A9
:101240007F938F939F93AF93BF93EF93FF934091BF
:10125000C600E0914E01F0914F01CF01019660E888
:1012600070E00E9453099C018091500190915101BE
:101270002817390739F0EE5AFE4F408330934F015B
:1012800020934E01FF91EF91BF91AF919F918F916C
:101290007F916F915F914F913F912F910F900FBE72
:1012A0000F901F90189597FB092E07260AD077FDFF
:1012B00004D049D006D000201AF4709561957F4F74
:1012C0000895F6F7909581959F4F0895A1E21A2E03
:1012D000AA1BBB1BFD010DC0AA1FBB1FEE1FFF1FDA
:1012E000A217B307E407F50720F0A21BB30BE40B2A
:1012F000F50B661F771F881F991F1A9469F7609571
:101300007095809590959B01AC01BD01CF0108952A
:1013100097FB092E05260ED057FD04D0D7DF0AD043
:10132000001C38F450954095309521953F4F4F4F14
:101330005F4F0895F6F790958095709561957F4F72
:101340008F4F9F4F0895AA1BBB1B51E107C0AA1FD7
:10135000BB1FA617B70710F0A61BB70B881F991F56
:101360005A95A9F780959095BC01CD010895EE0F8F
:0E137000FF1F0590F491E02D0994F894FFCF33
:10137E003A00202020202020002F002000D601003F
:08138E000000000000A80600A9
:00000001FF
